:100000000C9429010C9446010C9446010C94460171
:100010000C9446010C9446010C9446010C94460144
:100020000C9446010C9446010C9446010C94460134
:100030000C9446010C9446010C9446010C94460124
:100040000C9446010C9446010C9446010C94460114
:100050000C9446010C9446010C9446010C94460104
:100060000C9446010C9446010C9446010C944601F4
:100070000C9446010C9446010C9446010C944601E4
:100080000C9446010C9446010C9446010C944601D4
:100090000C9446010C944A060C9446010C946E068E
:1000A000740178015B0169017001880162017C01C2
:1000B000FF010302B20349027B02AD02B203DF0279
:1000C000BD03BD030803B2030E031803B203B2035A
:1000D000B203B2031C034E0380030D021102160289
:1000E0001B022002BF03BF03BF03BF03BF03BF0345
:1000F000BF03BF03BF03BF03BF03BF03BF03BF03F0
:10010000BF0332023702BF03BF03BF03BF03BF03F6
:10011000BF033B02BF03BF03BF03BF03BF03BF0354
:10012000BF03BF03BF03BF03BF03BF03BF03BF03BF
:10013000BF03BF03BF03BF03BF03BF03BF03BF03AF
:10014000BF03BF03BF03BF03BF03BF03BF03BF039F
:10015000BF03BF03BF03BF03BF03BF03BF03BF038F
:10016000BF03BF03BF03BF03BF03BF03BF03BF037F
:10017000BF03BF03BF03BF03BF03BF03BF03BF036F
:10018000BF03BF03BF03BF03BF03BF03BF034002DF
:100190004402E902EE02F302F802F802FD02C10392
:1001A000C103C103C103C103C103C103C103C1032F
:1001B000C103C103C103C103C103C103C103C1031F
:1001C000C103C103C103C103C103C103C1030103CF
:1001D00007634236B79BD8A71A39685618AEBAAB30
:1001E000558C1D3CB7CC5763BD6DEDFD753EF617C4
:1001F0007231BF000000803F08000000BE92244919
:10020000123EABAAAA2ABECDCCCC4C3E0000008048
:10021000BEABAAAAAA3E00000000BF000000803FBB
:100220000000000000084178D3BB4387D1133D197B
:100230000E3CC3BD4282AD2B3E68EC8276BED98FA8
:10024000E1A93E4C80EFFFBE01C4FF7F3F000000EC
:10025000000011241FBECFEFCDBFDFE3DEBF18E2E9
:10026000A0E0B8E2ECE1F7E102C005900D92A23007
:10027000B107D9F72AE2A2E0B8E201C01D92A1308D
:10028000B207E1F70E9419060C948C0B0C94000045
:10029000CF93DF93C82FD62F0E94D7058430C1F1AA
:1002A0008C2F90E0FC013197E830F10588F5E05B98
:1002B000FF4F0C94600B8EE40E94A4058D2F0E94CA
:1002C000A40520C08FE40E94A4058D2F0E94A405E0
:1002D00019C086E40E94A4058D2F0E94A40512C0B7
:1002E00081E40E94A4050EC083E50E94A4050AC013
:1002F00082E40E94A40506C088E40E94A4058D2F14
:100300000E94A4058AE00E94A4058DE00E94A40535
:10031000DF91CF9108958F929F92AF92BF92CF922B
:10032000DF92EF92FF920F931F93CF93DF93CDB79E
:10033000DEB76097CDBFDEBF0091302980910528E0
:10034000823018F0803158F012C0882309F411C2AD
:10035000602F70E088E00E94480188E013C2E82F17
:10036000F0E0E05DF64D10828F5F8031C1F74EE224
:1003700061E080E399E20E949C06182F882341F1F6
:100380002FEF280F41E0BE016F5F7F4F80E399E2BE
:100390000E94BF06CE0101960E94660B7C01CC2410
:1003A000C394C10E6C2D80E399E20E94E906D82E19
:1003B000212F280F4C2DBE016F5F7F4F80E399E204
:1003C0000E94BF06CE0101960E94660B182F07C03F
:1003D00081E399E20E94660B7C01D12C10E000239E
:1003E0000CF4C9C1802F90E0FC01E654F109E5311D
:1003F000F10508F0B7C1E85AFF4F0C94600BE0928A
:10040000282980E0BFC18CE5E816F10408F0B7C1E7
:10041000F701E359FF4F0C94600B1092262980E0FE
:10042000B1C181E08093262980E0ACC182E0809355
:10043000262980E0A7C183E08093262980E0A2C11D
:10044000E0E1F9E284E0868B809102289091032814
:10045000092E000CAA0BBB0B828F938FA48FB58F34
:1004600080E090C181E080932F2980E08BC11092C1
:100470002E2980E087C185E08093262980E082C113
:1004800010922E2980E07EC181E080932E2980E0A9
:1004900079C16D2D70E080E090E00E9450089B01D2
:1004A000AC0160E070E080E291E40E94A3094B019E
:1004B0005C01612F70E080E090E00E945208A5018D
:1004C00094010E94A8074B015C01B701FF0C880B47
:1004D000990B0E9452089B01AC01C501B4010E9416
:1004E0003C070E9403076093192970931A2980938F
:1004F0001B2980E047C16D2D70E080E090E00E94F4
:1005000050089B01AC0160E070E080E291E40E9441
:10051000A3094B015C01612F70E080E090E00E9434
:100520005208A50194010E94A8074B015C01B70184
:10053000FF0C880B990B0E9452089B01AC01C5016E
:10054000B4010E943C070E94030760931C2970932A
:100550001D2980931E2980E015C16D2D70E080E07B
:1005600090E00E9450089B01AC0160E070E080E2E6
:1005700091E40E94A3094B015C01612F70E080E0CF
:1005800090E00E945208A50194010E94A8074B0127
:100590005C01B701FF0C880B990B0E9452089B016C
:1005A000AC01C501B4010E943C070E94030760939F
:1005B0001F29709320298093212980E0E3C08FE1D7
:1005C000E816F10408F0DDC0F701E753FF4F0C9483
:1005D000600B60E070E081E00E94480160E070E044
:1005E00081E00E94480160E070E081E00E944801E3
:1005F00081E08093292980E0C5C01092292980E0FC
:10060000C1C060E070E081E00E94480180E0BAC0B3
:10061000E0920228F092032880E0B4C010922229D0
:1006200010922329109224291092252980E0AAC033
:10063000E092272980E0A6C06D2D70E080E090E078
:100640000E9450089B01AC0160E070E080E291E400
:100650000E94A3094B015C01612F70E080E090E0F3
:100660000E945208A50194010E94A8074B015C0159
:10067000B701FF0C880B990B0E9452089B01AC013B
:10068000C501B4010E943C070E9403076093102932
:10069000709311298093122980E074C06D2D70E051
:1006A00080E090E00E9450089B01AC0160E070E0A7
:1006B00080E291E40E94A3094B015C01612F70E08C
:1006C00080E090E00E945208A50194010E94A807D2
:1006D0004B015C01B701FF0C880B990B0E9452087B
:1006E0009B01AC01C501B4010E943C070E940307B5
:1006F00060931329709314298093152980E042C0D8
:100700006D2D70E080E090E00E9450089B01AC01EC
:1007100060E070E080E291E40E94A3094B015C017B
:10072000612F70E080E090E00E945208A5019401E2
:100730000E94A8074B015C01B701FF0C880B990BC5
:100740000E9452089B01AC01C501B4010E943C0704
:100750000E94030760931629709317298093182924
:1007600080E010C0602F70E083E00E94480183E0C9
:1007700009C088E007C080E005C080E003C080E0D9
:1007800001C080E06096CDBFDEBFDF91CF911F91A9
:100790000F91FF90EF90DF90CF90BF90AF909F9020
:1007A0008F900895982F9F7DF1F0982F9B7F9B321B
:1007B000E1F08532E1F0883211F08B3331F4809131
:1007C00040298F5F8093402907C0893229F48091A6
:1007D000402981508093402981E0909140299111D6
:1007E00007C080E0089581E0089581E0089581E0E8
:1007F000089593ED980F923038F090ED980F81E0C6
:100800009A3018F480E0089580E0089590910628C9
:1008100080910728981741F08F5F883008F080E0BA
:10082000891721F085E0089586E0089584E0089511
:10083000CF93DF93CDB7DEB7809107288F5F8830E5
:1008400018F48093072802C010920728A091072867
:1008500080E2A89FD0011124A05FB74D80E2FE0185
:10086000359601900D928A95E1F7DF91CF91089529
:10087000CF93809104288823F1F00E940604C82FAA
:10088000843009F483C08DB79EB780978DBF9EBF1B
:10089000ADB7BEB7119680E2E0E1F9E201900D92AA
:1008A0008A95E1F70E941804109204288DB79EB72C
:1008B00080968DBF9EBF0E944C05C82F0E94D20318
:1008C000811163C0CD3011F0CA30E9F50E948B016F
:1008D000811102C0109200281092052880910028F2
:1008E00081113AC01092402981E0809300288093C2
:1008F00004280E940604C82F843031F462E470E0BA
:1009000084E00E94480142C08DB79EB780978DBF9A
:100910009EBFADB7BEB7119680E2E0E1F9E201906B
:100920000D928A95E1F70E941804109204288DB761
:100930009EB780968DBF9EBF60E070E082E00E940F
:100940004801C2E023C0809105288F3028F067E578
:1009500070E087E00E9448018C2F0E94F9038823F1
:1009600041F00E948B01811102C010920028109268
:10097000052880910528E82FF0E0E05DF64DC08362
:100980008F5F80930528C0E001C0C0E08C2FCF911D
:100990000895109205281092072810920628E0E189
:1009A000F9E2108211821282138214821582168259
:1009B0001782108685E0868B178A108E118E128E14
:1009C000138E148E158E168E178E8DB79EB7809748
:1009D0008DBF9EBFADB7BEB7119680E201900D925C
:1009E0008A95E1F70E9418048DB79EB780968DBF57
:1009F0009EBF0895CF93C82F9A01AB0165E573E7B9
:100A00008BEC90E00E943E0BC13099F028F0C23090
:100A1000E9F0C33041F133C0E0E0F8E020873187EE
:100A200080EC858393E0978391E090930104868323
:100A300026C0E0E2F8E02087318780EC858393E0F0
:100A4000978391E090934104868319C0E0E4F8E035
:100A50002087318780EC858393E0978391E09093A2
:100A6000A10486830CC0E0E6F8E02087318780ECA3
:100A7000858393E0978391E0909321048683CF91BF
:100A8000089520910D2880910C2890E0821B9109F7
:100A900012F480589F4F0895CF9380910C2891E0D5
:100AA000980F20910D28821791F0903809F490E06A
:100AB000E92FF0E0EF57F64DC08190930C280E948B
:100AC0004105853130F0109209288C2F03C080E059
:100AD00001C08C2FCF9108952091600880910D283E
:100AE00090910D28903811F08F5F01C080E09091B7
:100AF0000C28891741F0E82FF0E0EF57F64D2083DE
:100B000080930D2805C062E570E087E00E944801EF
:100B10000E9441058A3018F481E0809309280895E5
:100B200080910D2890910C28891751F080910D2803
:100B30008F5F803809F480E0891721F085E00895FF
:100B400086E0089584E0089590910B289F5F90348B
:100B500009F490E0E92FF0E0EF5BF64D808390938D
:100B60000B2808958091092890910828891761F031
:100B7000882321F096E69093620803C091E6909353
:100B8000620880930828089580910A2890910A2885
:100B9000903411F08F5F01C080E0E82FF0E0EF5B50
:100BA000F64D90819093620880930A280895909161
:100BB000092880910828981310C080910B289091E3
:100BC0000A28891761F08F5F803409F480E09091E2
:100BD0000A28891731F085E0089585E0089586E0B8
:100BE000089584E008950E94C9048BE60E94A4053C
:100BF00080E28093A5040F2EF0E6EF2EF8E0FF2EA2
:100C0000F02D00EA14E0C0E20E9438040E94D705EB
:100C1000863061F0F701858186FD08C0F801C68342
:100C20000E94B205F701858180648583F801C58340
:100C3000EBCF40E855E260E070E083E00E94FA0408
:100C40008FE68093620880E28093A10484E0809321
:100C5000410480E180936104789400EA14E0C0E2EA
:100C60000E949005863041F0F801C7830E944C0530
:100C7000853211F40E94F30580910E2890910F287F
:100C8000019680930E2890930F28892B49F7F8013D
:100C9000C783E6CF1F920F920FB60F9211242F93A6
:100CA0003F934F935F936F937F938F939F93AF93F4
:100CB000BF93EF93FF930E946C05FF91EF91BF915B
:100CC000AF919F918F917F916F915F914F913F91E4
:100CD0002F910F900FBE0F901F9018951F920F929B
:100CE0000FB60F9211242F933F934F935F936F93FF
:100CF0007F938F939F93AF93BF93EF93FF930E9444
:100D0000D705863019F00E94B20505C0E0E6F8E08C
:100D100085818F7B8583FF91EF91BF91AF919F91EB
:100D20008F917F916F915F914F913F912F910F9094
:100D30000FBE0F901F9018959C016031B0F4FC011C
:100D4000E60FF11D8081882391F0481309C011C07E
:100D5000F901E60FF11D9081992369F0941769F06C
:100D60006F5F6031A9F780E0089580E0089580E02A
:100D70000895862F089580E00895862F0895CF93D3
:100D8000DF93EC01241B2F5FFB01DB0150961192D6
:100D9000EA17FB07E1F71216CCF4022E000C330B16
:100DA000121613069CF4E0E0F0E090E050E0EC0F47
:100DB000FD1FE40FF51F8081FB01E90FF11D80830A
:100DC0009F5FE92FF0E0E217F3078CF3DF91CF91FB
:100DD00008959C01603198F4FC01E60FF11D8081BB
:100DE000882379F080E006C0F901E60FF11D9081BB
:100DF000992341F08F5F6F5F6031B1F7089580E014
:100E0000089580E008958F929F92AF92BF92CF9203
:100E1000DF92EF92FF9228ED30EF44E75CE30E940F
:100E2000A8074B015C010E948D080E941A086B0103
:100E30007C01072E000C880B990B0E9452089B0125
:100E4000AC01C501B4010E943B0720E030E040E85E
:100E500051E40E9436090E94F3090E941A08862F65
:100E60006C2D7D2DFF90EF90DF90CF90BF90AF90D5
:100E70009F908F9008955058BB27AA270E94530730
:100E80000C94E4080E94D60838F00E94DD0820F097
:100E900039F49F3F19F426F40C94D3080EF4E0952E
:100EA000E7FB0C94A408E92F0E94F50858F3BA1741
:100EB000620773078407950720F079F4A6F50C9470
:100EC0002F090EF4E0950B2EBA2FA02D0B01B901BE
:100ED00090010C01CA01A0011124FF27591B99F0B0
:100EE000593F50F4503E68F11A16F040A22F232FBC
:100EF000342F4427585FF3CF469537952795A7950C
:100F0000F0405395C9F77EF41F16BA0B620B730BB2
:100F1000840BBAF09150A1F0FF0FBB1F661F771F23
:100F2000881FC2F70EC0BA0F621F731F841F48F4D8
:100F3000879577956795B795F7959E3F08F0B0CF61
:100F40009395880F08F09927EE0F97958795089548
:100F50000E94BC070C94E4080E94DD0858F00E942F
:100F6000D60840F029F45F3F29F00C94A4085111F1
:100F70000C9430090C94D3080E94F50868F3992367
:100F8000B1F3552391F3951B550BBB27AA27621785
:100F90007307840738F09F5F5F4F220F331F441F92
:100FA000AA1FA9F335D00E2E3AF0E0E832D09150C6
:100FB0005040E695001CCAF72BD0FE2F29D0660FB3
:100FC000771F881FBB1F261737074807AB07B0E8F6
:100FD00009F0BB0B802DBF01FF2793585F4F3AF0FC
:100FE0009E3F510578F00C94A4080C9430095F3FA3
:100FF000E4F3983ED4F3869577956795B795F79582
:101000009F5FC9F7880F911D9695879597F9089569
:10101000E1E0660F771F881FBB1F62177307840705
:10102000BA0720F0621B730B840BBA0BEE1F88F714
:10103000E09508950E9421086894B1110C9430093C
:1010400008950E94FD0888F09F5798F0B92F9927BE
:10105000B751B0F0E1F0660F771F881F991F1AF0A3
:10106000BA95C9F714C0B13091F00E942F09B1E0D0
:1010700008950C942F09672F782F8827B85F39F0CF
:10108000B93FCCF3869577956795B395D9F73EF43C
:1010900090958095709561957F4F8F4F9F4F0895E4
:1010A000E89409C097FB3EF4909580957095619502
:1010B0007F4F8F4F9F4F9923A9F0F92F96E9BB27B8
:1010C0009395F695879577956795B795F111F8CF34
:1010D000FAF4BB0F11F460FF1BC06F5F7F4F8F4F9F
:1010E0009F4F16C0882311F096E911C0772321F095
:1010F0009EE8872F762F05C0662371F096E8862F2D
:1011000070E060E02AF09A95660F771F881FDAF783
:10111000880F9695879597F908950E94170990F082
:101120009F3748F4911116F00C94300960E070E09C
:1011300080E89FEB089526F41B16611D711D811D2B
:101140000C94AA080C94C50897F99F6780E870E092
:1011500060E00895882371F4772321F09850872B5D
:10116000762F07C0662311F499270DC09051862B66
:1011700070E060E02AF09A95660F771F881FDAF713
:10118000880F9695879597F908959F3F31F0915074
:1011900020F4879577956795B795880F911D96955B
:1011A000879597F908959FEF80EC089500240A949D
:1011B0001616170618060906089500240A94121632
:1011C0001306140605060895092E0394000C11F465
:1011D000882352F0BB0F40F4BF2B11F460FF04C012
:1011E0006F5F7F4F8F4F9F4F089557FD9058440F6B
:1011F000551F59F05F3F71F04795880F97FB991F76
:1012000061F09F3F79F08795089512161306140632
:10121000551FF2CF4695F1DF08C0161617061806BF
:10122000991FF1CF869571056105089408950E9474
:10123000FD08A0F0BEE7B91788F4BB279F3860F41B
:101240001616B11D672F782F8827985FF7CF8695E0
:1012500077956795B11D93959639C8F30895E894ED
:10126000BB2766277727CB0197F908950E94490984
:101270000C94E4080E94D60838F00E94DD0820F0A3
:10128000952311F00C94A4080C94D30811240C9409
:1012900030090E94F50870F3959FC1F3950F50E057
:1012A000551F629FF001729FBB27F00DB11D639F18
:1012B000AA27F00DB11DAA1F649F6627B00DA11DBE
:1012C000661F829F2227B00DA11D621F739FB00D64
:1012D000A11D621F839FA00D611D221F749F3327D4
:1012E000A00D611D231F849F600D211D822F762F6D
:1012F0006A2F11249F5750409AF0F1F088234AF04A
:10130000EE0FFF1FBB1F661F771F881F91505040B5
:10131000A9F79E3F510580F00C94A4080C94300965
:101320005F3FE4F3983ED4F3869577956795B7953C
:10133000F795E7959F5FC1F7FE2B880F911D969556
:10134000879597F90895FA01EE0FFF1F3096210552
:101350003105A1F16115710561F48038BFE39B0788
:1013600049F168949038810561F08038BFEF9B07A0
:1013700041F099234AF5FF3FE1053105210519F1B7
:10138000E8940894E795D901AA2329F4AB2FBE2F3E
:10139000F85FD0F310C0FF5F70F4A695E0F7F7395F
:1013A00050F019F0FF3A38F49F779F930DD00F90CB
:1013B00007FC9058089546F00C94D30860E070E064
:1013C00080E89FE308954FE79F775F934F933F93A4
:1013D0002F930E94C20A2F913F914F915F910E94DB
:1013E00036090C941F0A0E94FD08E8F09E37E8F0C9
:1013F0009639B8F49E3848F4672F782F8827985F7D
:10140000F9CF86957795679593959539D0F3B62F53
:10141000B1706B0F711D811D20F4879577956795CD
:1014200093950C94AA080C94C5080C94300929F4DF
:1014300016F00C94A4080C942F090C94D3080E9465
:10144000FD08A8F39638A0F707F80F92E8942BE36D
:101450003AEA48EB5FE70E944C090F920F920F9215
:101460004DB75EB70F920E940A0BE0EDF1E00E94CB
:10147000510A4F915F91EF91FF91E595EE1FFF1F8C
:1014800049F0FE57E0684427EE0F441FFA95E1F754
:101490004195550B0E94840A0F9007FE0C94780A20
:1014A0000895DF93CF931F930F93FF92EF92DF92F4
:1014B0007B018C01689406C0DA2EEF010E94490975
:1014C000FE01E894A5912591359145915591A6F39A
:1014D000EF010E945307FE019701A801DA9469F712
:1014E000DF90EF90FF900F911F91CF91DF910895C2
:1014F0009B01AC0160E070E080E89FE30C94A807DA
:101500000C94A4080C94C5080E94FD08D8F39923F4
:10151000C9F3940F511DA3F39150504094F059F02A
:10152000882332F0660F771F881F91505040C1F713
:101530009E3F51052CF7880F911D9695879597F939
:1015400008955F3FACF0983E9CF0BB278695779559
:101550006795B79508F4B1609395C1F7BB0F58F73D
:1015600011F460FFE8CF6F5F7F4F8F4F9F4FE3CF46
:101570000C94300916F00C94C5080C94D3086894A8
:101580000C94A4080E94FD08A8F39923C1F3AEF3BC
:10159000DF93CF931F930F93FF92C92FDD278823EB
:1015A0002AF02197660F771F881FDAF720E030E0D6
:1015B00040E85FEB9FE3883920F0803E38F02196C9
:1015C0008F770E943C07E8EFF1E004C00E943C07DF
:1015D000E5E2F2E00E94510A8B01BE01EC01FB2E14
:1015E0006F5771097595771F880B990B0E945208E8
:1015F00028E132E741E35FE30E944909AF2D9801FA
:10160000AE01FF900F911F91CF91DF910E94530780
:101610000C94E408FA01DC01AA0FBB1F9B01AC018A
:10162000BF5728F4222733274427507820C0B751CA
:1016300090F4AB2F0024469537952795011CA39570
:10164000D2F3002071F0220F331F441FB395DAF359
:101650000ED00C943B0761307105A0E88A07B946AB
:1016600030F49B01AC016627772788279078309665
:1016700021F020833183428353830895A1E21A2EFF
:10168000AA1BBB1BFD010DC0AA1FBB1FEE1FFF1F26
:10169000A217B307E407F50720F0A21BB30BE40B76
:1016A000F50B661F771F881F991F1A9469F76095BD
:1016B0007095809590959B01AC01BD01CF01089577
:1016C000EE0FFF1F0590F491E02D0994FC0188278F
:1016D0009927E89421912032E9F3293010F02E3037
:1016E000C8F32B3241F02D3239F4689404C00E94C3
:1016F000840B820F911D219120532A30C0F31EF4D8
:10170000909581959F4F08957AE0979F902D879FA0
:0C171000802D910D11240895F894FFCF56
:02171C000100CA
:00000001FF
