S01C0000536F6C646572207061737465207072696E7465722E737265633E
S11300000C9450000C9465000C9465000C946500ED
S11300100C9465000C9465000C9465000C946500C8
S11300200C9465000C9465000C9465000C946500B8
S11300300C9465000C9465000C9465000C946500A8
S11300400C9465000C9465000C9465000C94650098
S11300500C9465000C9465000C9465000C94650088
S11300600C9465000C9465000C9465000C94650078
S11300700C9465000C9465000C9465000C94650068
S11300800C9465000C9465000C9465000C94650058
S11300900C9465000C9428010C9465000C94650084
S11300A011241FBECFEFCDBFDFE3DEBF18E2A0E017
S11300B0B8E2E0EEF2E002C005900D92A230B10782
S11300C0D9F70E94DA000C946E010C940000CF93CF
S11300D0C82F9A01AB0164E573E78BEC90E00E94B2
S11300E04C01C130A1F028F0C230F9F0C33059F10D
S11300F037C0E0E0F8E02087318780E8858383E03B
S1130100878381E08093010480EC868329C0E0E248
S1130110F8E02087318780E8858383E0878381E066
S11301208093410480EC86831BC0E0E4F8E02087E0
S1130130318780E8858383E0878381E08093A1040D
S113014080EC86830DC0E0E6F8E02087318780E804
S1130150858383E0878381E08093210480EC868318
S1130160CF91089580916008823679F480910028B7
S11301709091012804968093002890930128E0EA46
S1130180F4E084818062848310C0813671F48091AC
S113019000289091012804978093002890930128C7
S11301A0E0EAF4E084818F7D848380910028809349
S11301B06208089540E05BE460E070E083E00E9440
S11301C0670080E28093A10484E08093410480E18D
S11301D0809361047894E0E6F4E0A0E4B4E02FE7CF
S11301E08AE196E0215080409040E1F700C0000091
S11301F080910028909101280097E9F06CF0149602
S11302002C911497246014962C931497019780933F
S11302100028909301280CC014962C9114972B7FDE
S113022014962C9314970196809300289093012898
S11302308481806184832FE78AE196E021508040A5
S11302409040E1F700C0000084818F7E8483C7CF93
S11302501F920F920FB60F9211242F933F934F9337
S11302605F936F937F938F939F93AF93BF93EF931A
S1130270FF930E94B200FF91EF91BF91AF919F91C4
S11302808F917F916F915F914F913F912F910F903B
S11302900FBE0F901F901895A1E21A2EAA1BBB1B2C
S11302A0FD010DC0AA1FBB1FEE1FFF1FA217B3073E
S11302B0E407F50720F0A21BB30BE40BF50B661F54
S11302C0771F881F991F1A9469F760957095809518
S11302D090959B01AC01BD01CF010895F894FFCF27
S10502E0050013
S9030000FC
