:100000000C9450000C9462000C9462000C946200FA
:100010000C9462000C9462000C9462000C946200D8
:100020000C9462000C9462000C9462000C946200C8
:100030000C9462000C9462000C9462000C946200B8
:100040000C9462000C9462000C9462000C946200A8
:100050000C9462000C9462000C9462000C94620098
:100060000C9462000C9462000C9462000C94620088
:100070000C9462000C9462000C9462000C94620078
:100080000C9462000C9462000C9462000C94620068
:100090000C9462000C941D010C9462000C9462009C
:1000A00011241FBECFEFCDBFDFE3DEBF28E2A0E00B
:1000B000B8E201C01D92A230B207E1F70E94D7005A
:1000C0000C9463010C940000CF93C82F9A01AB01EC
:1000D00065E573E78BEC90E00E944101C130A1F02F
:1000E00028F0C230F9F0C33059F137C0E0E0F8E051
:1000F0002087318780E8858383E0878381E0809350
:10010000010480EC868329C0E0E2F8E02087318793
:1001100080E8858383E0878381E08093410480ECDD
:1001200086831BC0E0E4F8E02087318780E8858380
:1001300083E0878381E08093A10480EC86830DC0F7
:10014000E0E6F8E02087318780E8858383E08783D5
:1001500081E08093210480EC8683CF910895809183
:100160006008823681F420910028309101282C59B2
:100170003F4F2093002830930128E0EAF4E0948177
:100180009062948311C0813679F4209100283091D7
:100190000128245631092093002830930128E0EAF1
:1001A000F4E094819F7D948380936208089540E0F9
:1001B0005BE460E070E083E00E94640080E2809392
:1001C000A10484E08093410480E1809361047894E9
:1001D000E0E6F4E0A0E4B4E08AE992E00197F1F708
:1001E00000C080910028909101280097E9F06CF000
:1001F00014962C911497246014962C9314970197BD
:1002000080930028909301280CC014962C91149789
:100210002B7F14962C93149701968093002890932B
:1002200001288481806184838AE992E00197F1F753
:1002300000C084818F7E8483CFCF1F920F920FB630
:100240000F9211242F933F934F935F936F937F935C
:100250008F939F93AF93BF93EF93FF930E94AF0051
:10026000FF91EF91BF91AF919F918F917F916F918E
:100270005F914F913F912F910F900FBE0F901F9064
:100280001895A1E21A2EAA1BBB1BFD010DC0AA1FC7
:10029000BB1FEE1FFF1FA217B307E407F50720F0EF
:1002A000A21BB30BE40BF50B661F771F881F991F6A
:1002B0001A9469F760957095809590959B01AC01B3
:0A02C000BD01CF010895F894FFCFAF
:00000001FF
