:100000000C9421010C9433010C9433010C943301B2
:100010000C9433010C9433010C9433010C94330190
:100020000C9433010C9433010C9433010C94330180
:100030000C9433010C9433010C9433010C94330170
:100040000C9433010C9433010C9433010C94330160
:100050000C9433010C9433010C9433010C94330150
:100060000C9433010C9433010C9433010C94330140
:100070000C9433010C9433010C9433010C94330130
:100080000C9433010C9433010C9433010C94330120
:100090000C9433010C94A8040C9433010C94330198
:1000A0008D0191012C03D501050235022C03650257
:1000B000330333038B022C03910298022C032C038D
:1000C0002C032C039C02CC02FC029A019E01A3018A
:1000D000A801AD0135033503350335033503350379
:1000E0003503350335033503350335033503350350
:1000F0003503BE01C301350335033503350335032D
:100100003503C7013503350335033503350335039F
:10011000350335033503350335033503350335031F
:10012000350335033503350335033503350335030F
:1001300035033503350335033503350335033503FF
:1001400035033503350335033503350335033503EF
:1001500035033503350335033503350335033503DF
:1001600035033503350335033503350335033503CF
:100170003503350335033503350335033503CC012A
:10018000D0016E02730278027D027D028202370383
:10019000370337033703370337033703370337038F
:1001A000370337033703370337033703370337037F
:1001B0003703370337033703370337033703860221
:1001C00007634236B79BD8A71A39685618AEBAAB40
:1001D000558C1D3CB7CC5763BD6DEDFD753EF617D4
:1001E0007231BF000000803F08000000BE92244929
:1001F000123EABAAAA2ABECDCCCC4C3E0000008059
:10020000BEABAAAAAA3E00000000BF000000803FCB
:100210000000000000084178D3BB4387D1133D198B
:100220000E3CC3BD4282AD2B3E68EC8276BED98FB8
:10023000E1A93E4C80EFFFBE01C4FF7F3F000000FC
:10024000000011241FBECFEFCDBFDFE3DEBF29E2E8
:10025000A0E0B8E201C01D92A835B207E1F70E9404
:100260008A040C94BD090C9400008F929F92AF9267
:10027000BF92CF92DF92EF92FF920F931F93CF9393
:10028000DF93CDB7DEB76097CDBFDEBF5C017B01EA
:10029000FC01D0804EE261E00E94CC04C82E88238D
:1002A00029F12FEF280F41E0BE016F5F7F4FC5019D
:1002B0000E94EF04CE0101960E9497098C018824C8
:1002C00083948C0C682DC5010E941905982E2C2D45
:1002D000280F482DBE016F5F7F4FC5010E94EF04BC
:1002E000CE0101960E949709C82E07C0C50101964C
:1002F0000E9497098C01912CC12CDD200CF4B1C116
:100300008D2D90E0FC01E654F109E531F10508F08E
:10031000A3C1E05BFF4F0C949109F701008F80E0CF
:10032000A7C10C35110508F0A0C1F801EB59FF4F2A
:100330000C949109F701168A80E09AC181E0F701D7
:10034000868B80E095C182E0F701868B80E090C1CA
:1003500083E0F701868B80E08BC184E0F701868B18
:100360008091002890910128092E000CAA0BBB0B4C
:10037000828F938FA48FB58F80E07AC181E0F701DF
:10038000878F80E075C1F701168E80E071C185E02E
:10039000F701868B80E06CC1F701168E80E068C1A2
:1003A00081E0F701868F80E063C1692D70E080E015
:1003B00090E00E9481069B01AC0160E070E080E269
:1003C00091E40E94D4074B015C016C2D70E080E049
:1003D00090E00E948306A50194010E94D9054B017B
:1003E0005C01B801110F880B990B0E9483069B01D9
:1003F000AC01C501B4010E946D050E943305F701EF
:1004000061877287838780E033C1692D70E080E067
:1004100090E00E9481069B01AC0160E070E080E208
:1004200091E40E94D4074B015C016C2D70E080E0E8
:1004300090E00E948306A50194010E94D9054B011A
:100440005C01B801110F880B990B0E9483069B0178
:10045000AC01C501B4010E946D050E943305F7018E
:1004600064877587868780E003C1692D70E080E02E
:1004700090E00E9481069B01AC0160E070E080E2A8
:1004800091E40E94D4074B015C016C2D70E080E088
:1004900090E00E948306A50194010E94D9054B01BA
:1004A0005C01B801110F880B990B0E9483069B0118
:1004B000AC01C501B4010E946D050E943305F7012E
:1004C0006787708B818B80E0D3C00F31110508F0F6
:1004D000CEC0F801EF53FF4F0C94910981E00E94C8
:1004E0006B0581E0C5C081E00E946B0581E0C0C062
:1004F00081E00E946B0581E0BBC081E0F701818F44
:1005000080E0B6C0F701118E80E0B2C081E00E94A9
:100510006B0581E0ADC0009300281093012880E0B6
:10052000A7C0F701128A138A148A158A80E0A0C036
:10053000F701078B80E09CC0692D70E080E090E0BF
:100540000E9481069B01AC0160E070E080E291E4D2
:100550000E94D4074B015C016C2D70E080E090E0BC
:100560000E948306A50194010E94D9054B015C01FC
:10057000B801110F880B990B0E9483069B01AC01F7
:10058000C501B4010E946D050E943305F701608327
:100590007183828380E06CC0692D70E080E090E020
:1005A0000E9481069B01AC0160E070E080E291E472
:1005B0000E94D4074B015C016C2D70E080E090E05C
:1005C0000E948306A50194010E94D9054B015C019C
:1005D000B801110F880B990B0E9483069B01AC0197
:1005E000C501B4010E946D050E943305F7016383C4
:1005F0007483858380E03CC0692D70E080E090E0EA
:100600000E9481069B01AC0160E070E080E291E411
:100610000E94D4074B015C016C2D70E080E090E0FB
:100620000E948306A50194010E94D9054B015C013B
:10063000B801110F880B990B0E9483069B01AC0136
:10064000C501B4010E946D050E943305F701668360
:100650007783808780E00CC083E00E946B0583E095
:1006600007C080E005C080E003C080E001C080E0FA
:100670006096CDBFDEBFDF91CF911F910F91FF90AC
:10068000EF90DF90CF90BF90AF909F908F900895A4
:10069000803239F08B3239F091E0853229F090E0E8
:1006A00003C091E001C091E0892F089593ED980F68
:1006B000923038F090ED980F81E09A3018F480E095
:1006C000089580E008958091342890913528891705
:1006D00041F08150833008F082E0981721F080E0EB
:1006E000089585E0089584E00895CF93DF93CDB712
:1006F000DEB7809135288F5F833018F480933528DA
:1007000002C010923528A091352880E2A89FD00120
:100710001124A85CB74D80E2FE01359601900D9240
:100720008A95E1F7DF91CF910895CF93DF93809180
:1007300033288823E9F00E946303843009F48FC0D2
:100740008DB79EB780978DBF9EBFADB7BEB71196D0
:1007500080E2E3E1F8E201900D928A95E1F70E94D0
:100760007503109233288DB79EB780968DBF9EBFBC
:100770000E947D04D82F0E94480381116FC0DD3094
:1007800011F0DA30C1F5809112288823C9F1803147
:1007900040F4E82FF0E0EE5FF74D10828F5F80317C
:1007A000C1F763E178E282E098E20E94350110929D
:1007B000122881E0809333280E946303843009F477
:1007C0004EC08DB79EB780978DBF9EBFADB7BEB7E9
:1007D000119680E2E3E1F8E201900D928A95E1F74B
:1007E0000E947503109233288DB79EB780968DBFF7
:1007F0009EBF82E034C0C0911228C23060F401C0B4
:10080000C0E0EC2FF0E0EE5FF74DD083CF5FC093F8
:10081000122880E024C08D2F0E945603882391F077
:10082000C03140F4EC2FF0E0EE5FF74D1082CF5F67
:10083000C031C1F763E178E282E098E20E943501BD
:100840001092122880911228E82FF0E0EE5FF74D09
:10085000D0838F5F8093122880E001C080E0DF9119
:10086000CF910895CF93C82F9A01AB0165E573E747
:100870008BEC90E00E946F09C130A1F028F0C230EB
:10088000F9F0C33059F137C0E0E0F8E02087318754
:1008900080E8858383E0878381E08093010480EC96
:1008A000868329C0E0E2F8E02087318780E88583ED
:1008B00083E0878381E08093410480EC86831BC0C2
:1008C000E0E4F8E02087318780E8858383E0878350
:1008D00081E08093A10480EC86830DC0E0E6F8E01F
:1008E0002087318780E8858383E0878381E0809358
:1008F000210480EC8683CF910895E0913628809181
:100900003728E81729F0F0E0E852F74D8081089584
:1009100080E0089540E855E260E070E083E00E94E6
:10092000320480E28093A10484E08093410480E15A
:10093000809361047894E0EAF4E080E22AE23CE209
:100940009AE0215030409040E1F700008783F6CFD5
:100950001F920F920FB60F9211242F933F934F9334
:100960005F936F937F938F939F93AF93BF93EF9317
:10097000FF930E949503FF91EF91BF91AF919F91DB
:100980008F917F916F915F914F913F912F910F9038
:100990000FBE0F901F9018959C016031B0F4FC01C0
:1009A000E60FF11D8081882391F0481309C011C022
:1009B000F901E60FF11D9081992369F0941769F010
:1009C0006F5F6031A9F780E0089580E0089580E0CE
:1009D0000895862F089580E00895862F0895CF9377
:1009E000DF93EC01241B2F5FFB01DB01509611927A
:1009F000EA17FB07E1F71216CCF4022E000C330BBA
:100A0000121613069CF4E0E0F0E090E050E0EC0FEA
:100A1000FD1FE40FF51F8081FB01E90FF11D8083AD
:100A20009F5FE92FF0E0E217F3078CF3DF91CF919E
:100A300008959C01603198F4FC01E60FF11D80815E
:100A4000882379F080E006C0F901E60FF11D90815E
:100A5000992341F08F5F6F5F6031B1F7089580E0B7
:100A6000089580E008958F929F92AF92BF92CF92A7
:100A7000DF92EF92FF922AE43CE042E85EE30E94BC
:100A8000D9054B015C010E94BE060E944B066B011A
:100A90007C01072E000C880B990B0E9483069B019A
:100AA000AC01C501B4010E946C0520E030E040E8D3
:100AB00051E40E9467070E9424080E944B06862F7B
:100AC0006C2D7D2DFF90EF90DF90CF90BF90AF9079
:100AD0009F908F90089508955058BB27AA270E9491
:100AE00084050C9415070E94070738F00E940E0732
:100AF00020F039F49F3F19F426F40C9404070EF407
:100B0000E095E7FB0C94D506E92F0E94260758F3E1
:100B1000BA17620773078407950720F079F4A6F5E2
:100B20000C9460070EF4E0950B2EBA2FA02D0B014C
:100B3000B90190010C01CA01A0011124FF27591B22
:100B400099F0593F50F4503E68F11A16F040A22F28
:100B5000232F342F4427585FF3CF46953795279599
:100B6000A795F0405395C9F77EF41F16BA0B620B98
:100B7000730B840BBAF09150A1F0FF0FBB1F661FDF
:100B8000771F881FC2F70EC0BA0F621F731F841F22
:100B900048F4879577956795B795F7959E3F08F048
:100BA000B0CF9395880F08F09927EE0F979587950A
:100BB00008950E94ED050C9415070E940E0758F049
:100BC0000E94070740F029F45F3F29F00C94D506F6
:100BD00051110C9461070C9404070E94260768F3D6
:100BE0009923B1F3552391F3951B550BBB27AA27E6
:100BF00062177307840738F09F5F5F4F220F331F20
:100C0000441FAA1FA9F335D00E2E3AF0E0E832D0E7
:100C100091505040E695001CCAF72BD0FE2F29D0EA
:100C2000660F771F881FBB1F261737074807AB07BC
:100C3000B0E809F0BB0B802DBF01FF2793585F4F31
:100C40003AF09E3F510578F00C94D5060C9461075C
:100C50005F3FE4F3983ED4F3869577956795B79513
:100C6000F7959F5FC9F7880F911D9695879597F91E
:100C70000895E1E0660F771F881FBB1F6217730797
:100C80008407BA0720F0621B730B840BBA0BEE1FAC
:100C900088F7E09508950E9452066894B1110C946B
:100CA000610708950E942E0788F09F5798F0B92F8A
:100CB0009927B751B0F0E1F0660F771F881F991F91
:100CC0001AF0BA95C9F714C0B13091F00E946007CC
:100CD000B1E008950C946007672F782F8827B85FDC
:100CE00039F0B93FCCF3869577956795B395D9F7E9
:100CF0003EF490958095709561957F4F8F4F9F4FF3
:100D00000895E89409C097FB3EF4909580957095FE
:100D100061957F4F8F4F9F4F9923A9F0F92F96E947
:100D2000BB279395F695879577956795B795F111BC
:100D3000F8CFFAF4BB0F11F460FF1BC06F5F7F4F59
:100D40008F4F9F4F16C0882311F096E911C077236B
:100D500021F09EE8872F762F05C0662371F096E874
:100D6000862F70E060E02AF09A95660F771F881F43
:100D7000DAF7880F9695879597F908950E944807A6
:100D800090F09F3748F4911116F00C94610760E0E1
:100D900070E080E89FEB089526F41B16611D711D1D
:100DA000811D0C94DB060C94F60697F99F6780E88A
:100DB00070E060E00895882371F4772321F0985063
:100DC000872B762F07C0662311F499270DC0905109
:100DD000862B70E060E02AF09A95660F771F881FD7
:100DE000DAF7880F9695879597F908959F3F31F028
:100DF000915020F4879577956795B795880F911D49
:100E00009695879597F908959FEF80EC08950024B3
:100E10000A941616170618060906089500240A945F
:100E200012161306140605060895092E0394000CE5
:100E300011F4882352F0BB0F40F4BF2B11F460FF74
:100E400004C06F5F7F4F8F4F9F4F089557FD90589D
:100E5000440F551F59F05F3F71F04795880F97FB7E
:100E6000991F61F09F3F79F0879508951216130638
:100E70001406551FF2CF4695F1DF08C01616170667
:100E80001806991FF1CF869571056105089408959C
:100E90000E942E07A0F0BEE7B91788F4BB279F3841
:100EA00060F41616B11D672F782F8827985FF7CF4B
:100EB000869577956795B11D93959639C8F30895F2
:100EC000E894BB2766277727CB0197F908950E94FE
:100ED0007A070C9415070E94070738F00E940E0746
:100EE00020F0952311F00C94D5060C9404071124DE
:100EF0000C9461070E94260770F3959FC1F3950F2C
:100F000050E0551F629FF001729FBB27F00DB11D8D
:100F1000639FAA27F00DB11DAA1F649F6627B00D1D
:100F2000A11D661F829F2227B00DA11D621F739F06
:100F3000B00DA11D621F839FA00D611D221F749F14
:100F40003327A00D611D231F849F600D211D822F5B
:100F5000762F6A2F11249F5750409AF0F1F0882382
:100F60004AF0EE0FFF1FBB1F661F771F881F9150AF
:100F70005040A9F79E3F510580F00C94D5060C9483
:100F800061075F3FE4F3983ED4F3869577956795C4
:100F9000B795F795E7959F5FC1F7FE2B880F911DD9
:100FA0009695879597F90895FA01EE0FFF1F3096F1
:100FB00021053105A1F16115710561F48038BFE3A8
:100FC0009B0749F168949038810561F08038BFEF44
:100FD0009B0741F099234AF5FF3FE10531052105C3
:100FE00019F1E8940894E795D901AA2329F4AB2FC5
:100FF000BE2FF85FD0F310C0FF5F70F4A695E0F746
:10100000F73950F019F0FF3A38F49F779F930DD0DD
:101010000F9007FC9058089546F00C94040760E088
:1010200070E080E89FE308954FE79F775F934F93C9
:101030003F932F930E94F3082F913F914F915F911F
:101040000E9467070C9450080E942E07E8F09E3714
:10105000E8F09639B8F49E3848F4672F782F88273F
:10106000985FF9CF86957795679593959539D0F3E5
:10107000B62FB1706B0F711D811D20F48795779588
:10108000679593950C94DB060C94F6060C94610717
:1010900029F416F00C94D5060C9460070C94040700
:1010A0000E942E07A8F39638A0F707F80F92E8944D
:1010B0002BE33AEA48EB5FE70E947D070F920F921D
:1010C0000F924DB75EB70F920E943B09E0ECF1E042
:1010D0000E9482084F915F91EF91FF91E595EE1F7D
:1010E000FF1F49F0FE57E0684427EE0F441FFA95B2
:1010F000E1F74195550B0E94B5080F9007FE0C943F
:10110000A9080895DF93CF931F930F93FF92EF9257
:10111000DF927B018C01689406C0DA2EEF010E94F9
:101120007A07FE01E894A591259135914591559155
:10113000A6F3EF010E948405FE019701A801DA944D
:1011400069F7DF90EF90FF900F911F91CF91DF91A2
:1011500008959B01AC0160E070E080E89FE30C948F
:10116000D9050C94D5060C94F6060E942E07D8F3E8
:101170009923C9F3940F511DA3F39150504094F05B
:1011800059F0882332F0660F771F881F9150504026
:10119000C1F79E3F51052CF7880F911D96958795B5
:1011A00097F908955F3FACF0983E9CF0BB27869579
:1011B00077956795B79508F4B1609395C1F7BB0F24
:1011C00058F711F460FFE8CF6F5F7F4F8F4F9F4F4D
:1011D000E3CF0C94610716F00C94F6060C94040708
:1011E00068940C94D5060E942E07A8F39923C1F3A6
:1011F000AEF3DF93CF931F930F93FF92C92FDD2799
:1012000088232AF02197660F771F881FDAF720E0DE
:1012100030E040E85FEB9FE3883920F0803E38F013
:1012200021968F770E946D05E8EEF1E004C00E94E0
:101230006D05E5E1F2E00E9482088B01BE01EC0140
:10124000FB2E6F5771097595771F880B990B0E94BC
:10125000830628E132E741E35FE30E947A07AF2D7E
:101260009801AE01FF900F911F91CF91DF910E94E5
:1012700084050C941507FA01DC01AA0FBB1F9B0122
:10128000AC01BF5728F4222733274427507820C0C9
:10129000B75190F4AB2F0024469537952795011C44
:1012A000A395D2F3002071F0220F331F441FB39592
:1012B000DAF30ED00C946C0561307105A0E88A0752
:1012C000B94630F49B01AC016627772788279078D0
:1012D000309621F020833183428353830895A1E225
:1012E0001A2EAA1BBB1BFD010DC0AA1FBB1FEE1FA0
:1012F000FF1FA217B307E407F50720F0A21BB30BEB
:10130000E40BF50B661F771F881F991F1A9469F766
:1013100060957095809590959B01AC01BD01CF01C2
:101320000895EE0FFF1F0590F491E02D0994FC0144
:1013300088279927E89421912032E9F3293010F089
:101340002E30C8F32B3241F02D3239F4689404C0AA
:101350000E94B509820F911D219120532A30C0F3BC
:101360001EF4909581959F4F08957AE0979F902D58
:0E137000879F802D910D11240895F894FFCFD2
:00000001FF
