:100000000C9450000C9465000C9465000C946500F1
:100010000C9465000C9465000C9465000C946500CC
:100020000C9465000C9465000C9465000C946500BC
:100030000C9465000C9465000C9465000C946500AC
:100040000C9465000C9465000C9465000C9465009C
:100050000C9465000C9465000C9465000C9465008C
:100060000C9465000C9465000C9465000C9465007C
:100070000C9465000C9465000C9465000C9465006C
:100080000C9465000C9465000C9465000C9465005C
:100090000C9465000C9426010C9465000C9465008A
:1000A00011241FBECFEFCDBFDFE3DEBF18E2A0E01B
:1000B000B8E2ECEDF2E002C005900D92A230B1077B
:1000C000D9F70E94DA000C946C010C940000CF93D5
:1000D000C82F9A01AB0165E573E78BEC90E00E94B5
:1000E0004A01C130A1F028F0C230F9F0C33059F113
:1000F00037C0E0E0F8E02087318780E8858383E03F
:10010000878381E08093010480EC868329C0E0E24C
:10011000F8E02087318780E8858383E0878381E06A
:100120008093410480EC86831BC0E0E4F8E02087E4
:10013000318780E8858383E0878381E08093A10411
:1001400080EC86830DC0E0E6F8E02087318780E808
:10015000858383E0878381E08093210480EC86831C
:10016000CF91089580916008823681F42091002813
:10017000309101282C5F3F4F2093002830930128B5
:10018000E0EAF4E094819062948311C0813679F4BE
:100190002091002830910128245031092093002813
:1001A00030930128E0EAF4E094819F7D948380936A
:1001B0006208089540E05BE460E070E083E00E9444
:1001C000670080E28093A10484E08093410480E191
:1001D000809361047894E0E6F4E0A0E4B4E02AE6D9
:1001E00084E091E0215080409040E1F700C0809190
:1001F0000028909101280097E9F06CF014962C915A
:100200001497246014962C931497019780930028D8
:10021000909301280CC014962C9114972B7F149660
:100220002C93149701968093002890930128848141
:10023000806184832AE684E091E0215080409040F0
:10024000E1F700C084818F7E8483C9CF1F920F9213
:100250000FB60F9211242F933F934F935F936F9399
:100260007F938F939F93AF93BF93EF93FF930E94DE
:10027000B200FF91EF91BF91AF919F918F917F91CC
:100280006F915F914F913F912F910F900FBE0F9003
:100290001F901895A1E21A2EAA1BBB1BFD010DC0D1
:1002A000AA1FBB1FEE1FFF1FA217B307E407F50726
:1002B00020F0A21BB30BE40BF50B661F771F881F02
:1002C000991F1A9469F760957095809590959B0198
:0C02D000AC01BD01CF010895F894FFCFF0
:0202DC0005001B
:00000001FF
